:100000000C943B010C943D060C9412060C94E705ED
:100010000C94BC050C9491050C9466050C943B055E
:100020000C9410050C946C010C946C010C946C01F4
:100030000C946C010C946C010C946C010C946C018C
:100040000C946C010C946C010C946C010C946C017C
:100050000C946C010C946C010C946C010C94C6040F
:100060000C946C010C9492060C9468060C946C0130
:100070000C946C010C946C010C946C010C946C014C
:100080000C946C010C946C010C946C010C946C013C
:100090000C946C010C946C010C946C010C946C012C
:1000A0000C946C010C946C010C946C010C946C011C
:1000B0000C946C010C946C010C946C010C946C010C
:1000C0000C946C010C946C010C946C010C946C01FC
:1000D0000C946C010C946C010C946C010C946C01EC
:1000E0000C946C010C9471030C94DC010C94A3012E
:1000F0000C949E010C94F4010C9424030C94EC02D7
:100100000C94C4010C94C8060C94E2010C940A04EB
:100110000C94B9010C94D4010C94D8010C94DE0217
:100120000C94CE010C94CA010C94CA020C940404E1
:100130000C94BD010C94C1010C948D020C94E60149
:100140000C948E020C94BB020C94B5010C94EA0141
:100150000C94F00100002100240027002A002D004B
:100160003000330001010000040107010A01000012
:100170002200250028002B002E003100340002014F
:100180000000050108010B0100000A0B02090C0D1B
:100190000E0807030401000000000000000000003A
:1001A000000000000000000000000000000000004F
:1001B000000000001211100000000000000000000C
:1001C000000000000000000000000000000001022C
:1001D0001020200808102040102040800201020159
:1001E0000804020101020408102040808040201011
:1001F000080402018004020180402010080402016A
:1002000008040201010204081020408001020408D1
:1002100010204080000020002300260029002C0030
:100220002F0032000001000003010601090105054D
:100230000505070508080808020202020A0A08085C
:10024000040404040101010101010101030303038A
:1002500003030303040707070C0C0C0C0C0C0C0C19
:100260000202020206060606060606060B0B0B0B2A
:100270000B0B0B0BC80611241FBECFEFD1E2DEBF64
:10028000CDBF00E00CBF12E0A0E0B2E0ECEEF2E186
:1002900000E00BBF02C007900D92AE36B107D9F750
:1002A00023E0AEE6B2E001C01D92AC32B207E1F746
:1002B00011E0CBE3D1E000E006C021970109802FD7
:1002C000FE010E945209CA33D10780E00807A9F74E
:1002D0000E9480070C9474090C940000282F30E0D1
:1002E000F901E857FE4F9491F901E253FE4F449112
:1002F000225D3D4FF9012491222309F435C0992351
:1003000011F191509231F8F4E92FF0E08827E45789
:10031000FE4F8F4F0C945209BD01C1019E01B501E2
:10032000B901A301C401CA01CE01D401D801DC0185
:10033000E201E601A301EA01F001F40180918000ED
:100340008F7780938000E22FF0E0EE0FFF1FE259DD
:10035000FE4FA591B4918FB7F894EC91611148C00C
:1003600040954E234C938FBF0895809180008F7DE0
:10037000E8CF80918000877FE4CF84B58F7784BDFC
:10038000E2CF84B58F7DFBCF8091B0008F778093D3
:10039000B000D9CF8091B0008F7DF9CF80919000CF
:1003A0008F7780939000CFCF809190008F7DF9CF91
:1003B00080919000877FF5CF8091A0008F77809308
:1003C000A000C1CF8091A0008F7DF9CF8091A000C7
:1003D000877FF5CF809120018F7780932001B3CF65
:1003E000809120018F7DF9CF80912001877FF5CF0B
:1003F0004E2BB8CFCF93DF9390E0FC01E253FE4F3A
:100400002491825D9D4FFC0184918823C9F090E086
:10041000880F991FFC01EC5AFE4FA591B491FC0185
:10042000E259FE4FC591D49161110DC09FB7F89468
:100430008C91209582238C938881282328839FBFC9
:10044000DF91CF910895623051F49FB7F8943C91B9
:10045000822F809583238C93E8812E2BEFCF8FB74B
:10046000F894EC912E2B2C938FBFEACF3FB7F894E2
:100470008091730290917402A0917502B0917602FE
:1004800026B5A89B05C02F3F19F00196A11DB11DEF
:100490003FBFBA2FA92F982F8827BC01CD01620F2B
:1004A000711D811D911D42E0660F771F881F991FE6
:1004B0004A95D1F708958F929F92AF92BF92CF92B3
:1004C000DF92EF92FF924B015C010E9436026B01BA
:1004D0007C010E9436026C197D098E099F09683ED5
:1004E000734081059105A8F321E0821A9108A108C3
:1004F000B10888EEC80E83E0D81EE11CF11C8114FF
:100500009104A104B10429F7FF90EF90DF90CF9000
:10051000BF90AF909F908F9008950895AF92BF9233
:10052000CF92DF92EF92FF920F931F93CF93DF93BF
:100530006C017B018B01040F151FEB015E01AE18EE
:10054000BF08C017D10759F06991D601ED91FC9110
:100550000190F081E02DC6011995892B79F7C5012D
:10056000DF91CF911F910F91FF90EF90DF90CF908F
:10057000BF90AF900895FC01538D448D252F30E03E
:10058000842F90E0821B930B541710F0CF960895A0
:1005900001970895FC01918D828D981761F0A28DCD
:1005A000AE0FBF2FB11D5D968C91928D9F5F9F7393
:1005B000928F90E008958FEF9FEF0895FC01918D49
:1005C000828D981731F0828DE80FF11D858D90E0B6
:1005D00008958FEF9FEF0895FC01918D228D892F53
:1005E00090E0805C9F4F821B91098F73992708953B
:1005F00087E792E00E94EC0221E0892B09F420E0D9
:10060000822F0895FC01A48DA80FB92FB11DA35A04
:10061000BF4F2C91848D90E001968F739927848F22
:10062000A689B7892C93A089B1898C918370806445
:100630008C93938D848D981306C00288F389E02DE6
:1006400080818F7D80830895EF92FF920F931F9397
:10065000CF93DF93EC0181E0888F9B8D8C8D981375
:100660001AC0E889F989808185FF15C09FB7F89481
:10067000EE89FF896083E889F989808183708064CD
:1006800080839FBF81E090E0DF91CF911F910F9118
:10069000FF90EF900895F62E0B8D10E00F5F1F4F27
:1006A0000F731127E02E8C8D8E110CC00FB607FC36
:1006B000FACFE889F989808185FFF5CFCE010E94C4
:1006C0000203F1CFEB8DEC0FFD2FF11DE35AFF4F2D
:1006D000F0829FB7F8940B8FEA89FB898081806252
:1006E000CFCFCF93DF93EC01888D8823B9F0AA890F
:1006F000BB89E889F9898C9185FD03C0808186FDDD
:100700000DC00FB607FCF7CF8C9185FFF2CF80812B
:1007100085FFEDCFCE010E940203E9CFDF91CF919B
:10072000089580E090E0892B29F00E94F802811161
:100730000E94000080E090E0892B49F080E090E08A
:10074000892B29F00E94000081110E94000080E0A6
:1007500090E0892B49F080E090E0892B29F00E94FD
:10076000000081110E94000080E090E0892B49F098
:1007700080E090E0892B29F00E94000081110C9408
:1007800000000895DC01ED91FD918081ED91FD91D6
:100790009081ED91FD916C9163708E2309F06460FE
:1007A0009F2309F06860EFEDF3E0E60FF11D65951A
:1007B00065956D936D917D918D919D91099423C067
:1007C0001AC012C016C010C01EC009C014C013C089
:1007D00006C019C009C00DC007C00DC014C06250CA
:1007E0007040804090400BC061507040804090400D
:1007F00006C06E5F01C06F5F7F4F8F4F9F4F9E930C
:100800008E937E936E9308958091140390911503B7
:100810000C94C20380911603909117030C94C203A9
:1008200080911803909119030C94C20380911A03CC
:1008300090911B030C94C20380911C0390911D03A3
:100840000C94C20380911E0390911F030C94C20369
:10085000FC0101900020E9F73197AF01481B590BCB
:10086000BC0187E792E00C948E02CF93DF930E9445
:100870002804EC018EE292E00E9428048C0F9D1F58
:10088000DF91CF9108958F929F92AF92BF92CF92B6
:10089000DF92EF92FF920F931F93CF93DF93CDB729
:1008A000DEB7A1970FB6F894DEBF0FBECDBF6B01C8
:1008B0007C01F7FE47C06DE287E792E00E942403C7
:1008C0008C0122273327A9012C193D094E095F0904
:1008D00019A2CE0181967C019AE0892E912CA12C3F
:1008E000B12CCA01B901A50194010E941109605DF2
:1008F000F70162937F01211531054105510589F703
:1009000090E080E0309719F0CF010E942804080F92
:10091000191F8EE292E00E942804800F911FA19679
:100920000FB6F894DEBF0FBECDBFDF91CF911F9100
:100930000F91FF90EF90DF90CF90BF90AF909F907E
:100940008F900895AC019B0119A28E010F5D1F4F7E
:100950008AE0C82ED12CE12CF12CCA01B901A701E3
:1009600096010E941109605DF80162938F012115C3
:1009700031054105510589F7309729F0CF010E94D3
:1009800028048C01C6CF10E000E0C3CF1F920F9265
:100990000FB60F9211242F933F938F939F93AF9392
:1009A000BF9380916F0290917002A0917102B091FB
:1009B000720230916E0223E0230F2D3758F5019615
:1009C000A11DB11D20936E0280936F02909370025F
:1009D000A0937102B093720280917302909174029D
:1009E000A0917502B09176020196A11DB11D809370
:1009F000730290937402A0937502B0937602BF9134
:100A0000AF919F918F913F912F910F900FBE0F90BB
:100A10001F90189526E8230F0296A11DB11DD2CF75
:100A20001F920F920FB60F9211240BB60F922F93B5
:100A30003F934F935F936F937F938F939F93AF9366
:100A4000BF93EF93FF93E0911A02F0911B02199567
:100A5000FF91EF91BF91AF919F918F917F916F9196
:100A60005F914F913F912F910F900BBE0F900FBE52
:100A70000F901F9018951F920F920FB60F9211248E
:100A80000BB60F922F933F934F935F936F937F9388
:100A90008F939F93AF93BF93EF93FF93E0911802CF
:100AA000F09119021995FF91EF91BF91AF919F912C
:100AB0008F917F916F915F914F913F912F910F9007
:100AC0000BBE0F900FBE0F901F9018951F920F92A4
:100AD0000FB60F9211240BB60F922F933F934F93A3
:100AE0005F936F937F938F939F93AF93BF93EF9396
:100AF000FF93E0910E02F0910F021995FF91EF9193
:100B0000BF91AF919F918F917F916F915F914F9125
:100B10003F912F910F900BBE0F900FBE0F901F9023
:100B200018951F920F920FB60F9211240BB60F92C9
:100B30002F933F934F935F936F937F938F939F93E5
:100B4000AF93BF93EF93FF93E0910C02F0910D02EE
:100B50001995FF91EF91BF91AF919F918F917F91E7
:100B60006F915F914F913F912F910F900BBE0F901E
:100B70000FBE0F901F9018951F920F920FB60F92F5
:100B800011240BB60F922F933F934F935F936F9364
:100B90007F938F939F93AF93BF93EF93FF93E091D6
:100BA0001602F09117021995FF91EF91BF91AF9145
:100BB0009F918F917F916F915F914F913F912F9175
:100BC0000F900BBE0F900FBE0F901F9018951F92A5
:100BD0000F920FB60F9211240BB60F922F933F93E3
:100BE0004F935F936F937F938F939F93AF93BF9335
:100BF000EF93FF93E0911402F09115021995FF9184
:100C0000EF91BF91AF919F918F917F916F915F9184
:100C10004F913F912F910F900BBE0F900FBE0F90F1
:100C20001F9018951F920F920FB60F9211240BB6BA
:100C30000F922F933F934F935F936F937F938F9375
:100C40009F93AF93BF93EF93FF93E0911202F091C4
:100C500013021995FF91EF91BF91AF919F918F91E1
:100C60007F916F915F914F913F912F910F900BBEAC
:100C70000F900FBE0F901F9018951F920F920FB6F6
:100C80000F9211240BB60F922F933F934F935F93C4
:100C90006F937F938F939F93AF93BF93EF93FF9344
:100CA000E0911002F09111021995FF91EF91BF911F
:100CB000AF919F918F917F916F915F914F913F91F4
:100CC0002F910F900BBE0F900FBE0F901F90189595
:100CD0001F920F920FB60F9211240BB60F922F9303
:100CE0003F934F935F936F937F938F939F93AF93B4
:100CF000BF93EF93FF9387E792E00E940203FF9177
:100D0000EF91BF91AF919F918F917F916F915F9183
:100D10004F913F912F910F900BBE0F900FBE0F90F0
:100D20001F9018951F920F920FB60F9211240BB6B9
:100D30000F922F938F939F93EF93FF93E0918702EE
:100D4000F09188028081E0918D02F0918E0282FD07
:100D50001DC09081809190028F5F8F7320919102CE
:100D6000821741F0E0919002F0E0E958FD4F958F35
:100D700080939002FF91EF919F918F912F910F900F
:100D80000BBE0F900FBE0F901F9018958081F2CF71
:100D9000CF93DF9310927A021092790288EE93E05B
:100DA000A0E0B0E080937B0290937C02A0937D0250
:100DB000B0937E0280E292E0909378028093770273
:100DC00085EC90E0909384028093830284EC90E021
:100DD000909386028093850280EC90E09093880245
:100DE0008093870281EC90E090938A02809389023D
:100DF00082EC90E090938C0280938B0286EC90E0E2
:100E000090938E0280938D02109290021092910224
:100E1000109292021092930262E082E00E94FA0124
:100E200062E083E00E94FA01E0E3F2E0E491F0E0A6
:100E3000EE0FFF1FEC5EFD4FA591B491B09321031F
:100E4000A0932003E0EDF1E0449140932403E1E31B
:100E5000F2E0E491F0E0EE0FFF1FEC5EFD4FC59174
:100E6000D491D0932303C0932203E1EDF1E0E49108
:100E7000E093250310922703109228031092290370
:100E800010922A032BE33FE1C9010197F1F79C91EE
:100E9000842F892391E009F490E08881E82309F008
:100EA000926020E233E09093260330931503209361
:100EB000140384E094E090930D0280930C028091DF
:100EC0006A008C7F816080936A00EC9A81E0809355
:100ED0002B0330931703209316038AE094E090933A
:100EE0000F0280930E0280916A00837F846080935A
:100EF0006A00ED9A82E080932B03DF91CF910895F1
:100F0000789484B5826084BD84B5816084BD85B5E4
:100F1000826085BD85B5816085BD80916E008160F0
:100F200080936E0010928100809181008260809396
:100F30008100809181008160809381008091800098
:100F40008160809380008091B10084608093B100C3
:100F50008091B00081608093B000809191008260A8
:100F600080939100809191008160809391008091A5
:100F700090008160809390008091A10082608093B6
:100F8000A1008091A10081608093A1008091A000C8
:100F900081608093A0008091210182608093210173
:100FA00080912101816080932101809120018160E5
:100FB0008093200180917A00846080937A008091F0
:100FC0007A00826080937A0080917A0081608093B9
:100FD0007A0080917A00806880937A001092C10034
:100FE000E0918702F091880282E08083E0918302A1
:100FF000F09184021082E0918502F09186028FECDC
:10100000808310928F02E0918B02F0918C0286E037
:101010008083E0918902F0918A02808180618083DF
:10102000E0918902F0918A02808188608083E0915A
:101030008902F0918A02808180688083E091890230
:10104000F0918A0280818F7D808360E082E00E943F
:10105000FA0160E083E00E94FA0160E084E00E940F
:10106000FA0160E085E00E94FA0161E087E00E94F9
:10107000FA0161E088E00E94FA0161E089E00E94E3
:10108000FA0181E392E00E94350488E6882E9924D3
:101090009394A12CB12C80912B03823008F0BFC017
:1010A000F89480E293E00E94C203C0902703D0909E
:1010B0002803E0902903F0902A0378948091080295
:1010C00090910902A0910A02B0910B028C159D0526
:1010D000AE05BF05C9F1C0920802D0920902E092A4
:1010E0000A02F0920B028FB7F89420916F023091B0
:1010F000700240917102509172028FBFA0EDB7E073
:101100000E945A099B01AC01C701B6010E94110956
:101110002093040230930502409306025093070285
:10112000609108027091090280910A0290910B026D
:10113000A50194010E94330920930002309301021B
:10114000409302025093030281E492E00E9435042E
:10115000609108027091090280910A0290910B023D
:101160000E9443048DE492E00E94350460910402E1
:101170007091050280910602909107020E9443043B
:101180008AE592E00E9435046091000270910102AC
:1011900080910202909103020E94430462E370E096
:1011A00080E090E00E945B0261E087E00E946E01B7
:1011B00060E088E00E946E0164EF71E080E090E002
:1011C0000E945B0261E087E00E946E0161E088E0BE
:1011D0000E946E0164EF71E080E090E00E945B028B
:1011E00060E087E00E946E0161E088E00E946E018D
:1011F00064EF71E080E090E00E945B0261E087E0D4
:101200000E946E0161E088E00E946E0164EF71E06F
:1012100080E090E00E945B020E9491033CCFF89432
:1012200044CFA1E21A2EAA1BBB1BFD010DC0AA1FB1
:10123000BB1FEE1FFF1FA217B307E407F50720F03F
:10124000A21BB30BE40BF50B661F771F881F991FBA
:101250001A9469F760957095809590959B01AC0103
:10126000BD01CF010895052E97FB1EF400940E9446
:101270004A0957FD07D00E94110907FC03D04EF41C
:101280000C944A0950954095309521953F4F4F4F0A
:101290005F4F089590958095709561957F4F8F4F22
:1012A0009F4F0895EE0FFF1F881F8BBF0790F69189
:1012B000E02D19940E946509A59F900DB49F900D93
:1012C000A49F800D911D11240895A29FB001B39F8A
:1012D000C001A39F700D811D1124911DB29F700D3F
:0C12E000811D1124911D0895F894FFCF8A
:1012EC0098FEFFFF19FCFFFF19FCFFFF8D028D021A
:1012FC008D028D028D028D028D028D020000000088
:10130C0024038E02BB027103EC02CA02DE020D0A38
:10131C00004D6F6E69746F72204C696761646F2E3B
:10132C0000506F7369C3A7C3A36F3A200056656C56
:10133C006F6369646164653A20004772617573205C
:0E134C00646520706F7369C3A7C3A36F3A0076
:00000001FF
